{
  "_format": "hh-sol-artifact-1",
  "contractName": "BigIncGenesis",
  "sourceName": "contracts/BigIncGenesis.sol",
  "abi": [
    {
      "inputs": [
        {
          "internalType": "address",
          "name": "_usdtAddress",
          "type": "address"
        },
        {
          "internalType": "address",
          "name": "_usdcAddress",
          "type": "address"
        }
      ],
      "stateMutability": "nonpayable",
      "type": "constructor"
    },
    {
      "inputs": [
        {
          "internalType": "address",
          "name": "target",
          "type": "address"
        }
      ],
      "name": "AddressEmptyCode",
      "type": "error"
    },
    {
      "inputs": [
        {
          "internalType": "address",
          "name": "account",
          "type": "address"
        }
      ],
      "name": "AddressInsufficientBalance",
      "type": "error"
    },
    {
      "inputs": [],
      "name": "EnforcedPause",
      "type": "error"
    },
    {
      "inputs": [],
      "name": "ExpectedPause",
      "type": "error"
    },
    {
      "inputs": [],
      "name": "FailedInnerCall",
      "type": "error"
    },
    {
      "inputs": [
        {
          "internalType": "address",
          "name": "owner",
          "type": "address"
        }
      ],
      "name": "OwnableInvalidOwner",
      "type": "error"
    },
    {
      "inputs": [
        {
          "internalType": "address",
          "name": "account",
          "type": "address"
        }
      ],
      "name": "OwnableUnauthorizedAccount",
      "type": "error"
    },
    {
      "inputs": [],
      "name": "ReentrancyGuardReentrantCall",
      "type": "error"
    },
    {
      "inputs": [
        {
          "internalType": "address",
          "name": "token",
          "type": "address"
        }
      ],
      "name": "SafeERC20FailedOperation",
      "type": "error"
    },
    {
      "anonymous": false,
      "inputs": [],
      "name": "AllSharesSold",
      "type": "event"
    },
    {
      "anonymous": false,
      "inputs": [
        {
          "indexed": true,
          "internalType": "address",
          "name": "donor",
          "type": "address"
        },
        {
          "indexed": false,
          "internalType": "uint256",
          "name": "amount",
          "type": "uint256"
        }
      ],
      "name": "Donate",
      "type": "event"
    },
    {
      "anonymous": false,
      "inputs": [
        {
          "indexed": true,
          "internalType": "address",
          "name": "previousOwner",
          "type": "address"
        },
        {
          "indexed": true,
          "internalType": "address",
          "name": "newOwner",
          "type": "address"
        }
      ],
      "name": "OwnershipTransferred",
      "type": "event"
    },
    {
      "anonymous": false,
      "inputs": [
        {
          "indexed": false,
          "internalType": "address",
          "name": "account",
          "type": "address"
        }
      ],
      "name": "Paused",
      "type": "event"
    },
    {
      "anonymous": false,
      "inputs": [],
      "name": "PresaleEnded",
      "type": "event"
    },
    {
      "anonymous": false,
      "inputs": [
        {
          "indexed": true,
          "internalType": "address",
          "name": "buyer",
          "type": "address"
        },
        {
          "indexed": false,
          "internalType": "uint256",
          "name": "sharesBought",
          "type": "uint256"
        },
        {
          "indexed": false,
          "internalType": "uint256",
          "name": "amount",
          "type": "uint256"
        }
      ],
      "name": "ShareMinted",
      "type": "event"
    },
    {
      "anonymous": false,
      "inputs": [
        {
          "indexed": true,
          "internalType": "address",
          "name": "shareholder",
          "type": "address"
        },
        {
          "indexed": false,
          "internalType": "uint256",
          "name": "shareAmount",
          "type": "uint256"
        }
      ],
      "name": "SharesSeized",
      "type": "event"
    },
    {
      "anonymous": false,
      "inputs": [
        {
          "indexed": true,
          "internalType": "address",
          "name": "from",
          "type": "address"
        },
        {
          "indexed": true,
          "internalType": "address",
          "name": "to",
          "type": "address"
        },
        {
          "indexed": false,
          "internalType": "uint256",
          "name": "shareAmount",
          "type": "uint256"
        }
      ],
      "name": "TransferShare",
      "type": "event"
    },
    {
      "anonymous": false,
      "inputs": [
        {
          "indexed": false,
          "internalType": "address",
          "name": "account",
          "type": "address"
        }
      ],
      "name": "Unpaused",
      "type": "event"
    },
    {
      "inputs": [],
      "name": "availableShares",
      "outputs": [
        {
          "internalType": "uint256",
          "name": "",
          "type": "uint256"
        }
      ],
      "stateMutability": "view",
      "type": "function"
    },
    {
      "inputs": [],
      "name": "donate",
      "outputs": [],
      "stateMutability": "payable",
      "type": "function"
    },
    {
      "inputs": [],
      "name": "getAvailableShares",
      "outputs": [
        {
          "internalType": "uint256",
          "name": "",
          "type": "uint256"
        }
      ],
      "stateMutability": "view",
      "type": "function"
    },
    {
      "inputs": [],
      "name": "getShareholders",
      "outputs": [
        {
          "internalType": "address[]",
          "name": "",
          "type": "address[]"
        }
      ],
      "stateMutability": "view",
      "type": "function"
    },
    {
      "inputs": [
        {
          "internalType": "address",
          "name": "addr",
          "type": "address"
        }
      ],
      "name": "getShares",
      "outputs": [
        {
          "internalType": "uint256",
          "name": "",
          "type": "uint256"
        }
      ],
      "stateMutability": "view",
      "type": "function"
    },
    {
      "inputs": [],
      "name": "isPresaleActive",
      "outputs": [
        {
          "internalType": "bool",
          "name": "",
          "type": "bool"
        }
      ],
      "stateMutability": "view",
      "type": "function"
    },
    {
      "inputs": [
        {
          "internalType": "address",
          "name": "",
          "type": "address"
        }
      ],
      "name": "isShareholder",
      "outputs": [
        {
          "internalType": "bool",
          "name": "",
          "type": "bool"
        }
      ],
      "stateMutability": "view",
      "type": "function"
    },
    {
      "inputs": [
        {
          "internalType": "address",
          "name": "tokenAddress",
          "type": "address"
        }
      ],
      "name": "mintShare",
      "outputs": [],
      "stateMutability": "nonpayable",
      "type": "function"
    },
    {
      "inputs": [],
      "name": "owner",
      "outputs": [
        {
          "internalType": "address",
          "name": "",
          "type": "address"
        }
      ],
      "stateMutability": "view",
      "type": "function"
    },
    {
      "inputs": [],
      "name": "pause",
      "outputs": [],
      "stateMutability": "nonpayable",
      "type": "function"
    },
    {
      "inputs": [],
      "name": "paused",
      "outputs": [
        {
          "internalType": "bool",
          "name": "",
          "type": "bool"
        }
      ],
      "stateMutability": "view",
      "type": "function"
    },
    {
      "inputs": [],
      "name": "presaleShareValuation",
      "outputs": [
        {
          "internalType": "uint256",
          "name": "",
          "type": "uint256"
        }
      ],
      "stateMutability": "view",
      "type": "function"
    },
    {
      "inputs": [],
      "name": "presaleShares",
      "outputs": [
        {
          "internalType": "uint256",
          "name": "",
          "type": "uint256"
        }
      ],
      "stateMutability": "view",
      "type": "function"
    },
    {
      "inputs": [],
      "name": "renounceOwnership",
      "outputs": [],
      "stateMutability": "nonpayable",
      "type": "function"
    },
    {
      "inputs": [
        {
          "internalType": "address",
          "name": "shareholder",
          "type": "address"
        }
      ],
      "name": "seizeShares",
      "outputs": [],
      "stateMutability": "nonpayable",
      "type": "function"
    },
    {
      "inputs": [
        {
          "internalType": "uint256",
          "name": "",
          "type": "uint256"
        }
      ],
      "name": "shareholderAddresses",
      "outputs": [
        {
          "internalType": "address",
          "name": "",
          "type": "address"
        }
      ],
      "stateMutability": "view",
      "type": "function"
    },
    {
      "inputs": [
        {
          "internalType": "address",
          "name": "",
          "type": "address"
        }
      ],
      "name": "shareholders",
      "outputs": [
        {
          "internalType": "uint256",
          "name": "",
          "type": "uint256"
        }
      ],
      "stateMutability": "view",
      "type": "function"
    },
    {
      "inputs": [],
      "name": "sharesSold",
      "outputs": [
        {
          "internalType": "uint256",
          "name": "",
          "type": "uint256"
        }
      ],
      "stateMutability": "view",
      "type": "function"
    },
    {
      "inputs": [],
      "name": "totalShareValuation",
      "outputs": [
        {
          "internalType": "uint256",
          "name": "",
          "type": "uint256"
        }
      ],
      "stateMutability": "view",
      "type": "function"
    },
    {
      "inputs": [
        {
          "internalType": "address",
          "name": "newOwner",
          "type": "address"
        }
      ],
      "name": "transferOwnership",
      "outputs": [],
      "stateMutability": "nonpayable",
      "type": "function"
    },
    {
      "inputs": [
        {
          "internalType": "address",
          "name": "to",
          "type": "address"
        },
        {
          "internalType": "uint256",
          "name": "shareAmount",
          "type": "uint256"
        }
      ],
      "name": "transferShare",
      "outputs": [],
      "stateMutability": "nonpayable",
      "type": "function"
    },
    {
      "inputs": [],
      "name": "unpause",
      "outputs": [],
      "stateMutability": "nonpayable",
      "type": "function"
    },
    {
      "inputs": [],
      "name": "usdcAddress",
      "outputs": [
        {
          "internalType": "address",
          "name": "",
          "type": "address"
        }
      ],
      "stateMutability": "view",
      "type": "function"
    },
    {
      "inputs": [],
      "name": "usdtAddress",
      "outputs": [
        {
          "internalType": "address",
          "name": "",
          "type": "address"
        }
      ],
      "stateMutability": "view",
      "type": "function"
    },
    {
      "inputs": [
        {
          "internalType": "address",
          "name": "tokenAddress",
          "type": "address"
        },
        {
          "internalType": "uint256",
          "name": "amount",
          "type": "uint256"
        }
      ],
      "name": "withdraw",
      "outputs": [],
      "stateMutability": "nonpayable",
      "type": "function"
    }
  ],
  "bytecode": "0x6080604052649e53289000600655646a6fd89bc06007556301406f4060085560006009556304e33880600a556001600b60006101000a81548160ff0219169083151502179055503480156200005357600080fd5b5060405162002c5938038062002c598339818101604052810190620000799190620003d3565b33600073ffffffffffffffffffffffffffffffffffffffff168173ffffffffffffffffffffffffffffffffffffffff1603620000ef5760006040517f1e4fbdf7000000000000000000000000000000000000000000000000000000008152600401620000e691906200042b565b60405180910390fd5b62000100816200027c60201b60201c565b50600180819055506000600260006101000a81548160ff02191690831515021790555081600460006101000a81548173ffffffffffffffffffffffffffffffffffffffff021916908373ffffffffffffffffffffffffffffffffffffffff16021790555080600560006101000a81548173ffffffffffffffffffffffffffffffffffffffff021916908373ffffffffffffffffffffffffffffffffffffffff1602179055506000630112a880905080600c6000620001c36200034060201b60201c565b73ffffffffffffffffffffffffffffffffffffffff1673ffffffffffffffffffffffffffffffffffffffff16815260200190815260200160002081905550600d620002136200034060201b60201c565b9080600181540180825580915050600190039060005260206000200160009091909190916101000a81548173ffffffffffffffffffffffffffffffffffffffff021916908373ffffffffffffffffffffffffffffffffffffffff16021790555050505062000448565b60008060009054906101000a900473ffffffffffffffffffffffffffffffffffffffff169050816000806101000a81548173ffffffffffffffffffffffffffffffffffffffff021916908373ffffffffffffffffffffffffffffffffffffffff1602179055508173ffffffffffffffffffffffffffffffffffffffff168173ffffffffffffffffffffffffffffffffffffffff167f8be0079c531659141344cd1fd0a4f28419497f9722a3daafe3b4186f6b6457e060405160405180910390a35050565b60008060009054906101000a900473ffffffffffffffffffffffffffffffffffffffff16905090565b600080fd5b600073ffffffffffffffffffffffffffffffffffffffff82169050919050565b60006200039b826200036e565b9050919050565b620003ad816200038e565b8114620003b957600080fd5b50565b600081519050620003cd81620003a2565b92915050565b60008060408385031215620003ed57620003ec62000369565b5b6000620003fd85828601620003bc565b92505060206200041085828601620003bc565b9150509250929050565b62000425816200038e565b82525050565b60006020820190506200044260008301846200041a565b92915050565b61280180620004586000396000f3fe6080604052600436106101665760003560e01c8063817bc0cb116100d1578063b89a73cb1161008a578063f04da65b11610064578063f04da65b146104c5578063f2fde38b14610502578063f3fef3a31461052b578063ffe517bc1461055457610166565b8063b89a73cb14610453578063ed88c68e14610490578063eea5a1b11461049a57610166565b8063817bc0cb146103675780638456cb59146103925780638da5cb5b146103a95780639ab4a445146103d4578063a173f79e146103ff578063ac55c8381461042a57610166565b80635c3184dc116101235780635c3184dc146102695780635c975abb146102a657806360d938dc146102d15780637108d4eb146102fc578063715018a61461032557806374da65171461033c57610166565b806302d454571461016b57806312e868be14610196578063192fc516146101bf5780633f4ba83a146101ea57806341ca641e146102015780635c2930ad1461022c575b600080fd5b34801561017757600080fd5b5061018061057f565b60405161018d9190611efe565b60405180910390f35b3480156101a257600080fd5b506101bd60048036038101906101b89190611f80565b6105a5565b005b3480156101cb57600080fd5b506101d4610b3d565b6040516101e19190611fcf565b60405180910390f35b3480156101f657600080fd5b506101ff610b43565b005b34801561020d57600080fd5b50610216610b55565b60405161022391906120a8565b60405180910390f35b34801561023857600080fd5b50610253600480360381019061024e91906120ca565b610be3565b6040516102609190611fcf565b60405180910390f35b34801561027557600080fd5b50610290600480360381019061028b91906120f7565b610bfb565b60405161029d9190611efe565b60405180910390f35b3480156102b257600080fd5b506102bb610c3a565b6040516102c8919061213f565b60405180910390f35b3480156102dd57600080fd5b506102e6610c51565b6040516102f3919061213f565b60405180910390f35b34801561030857600080fd5b50610323600480360381019061031e91906120ca565b610c64565b005b34801561033157600080fd5b5061033a6111dd565b005b34801561034857600080fd5b506103516111f1565b60405161035e9190611fcf565b60405180910390f35b34801561037357600080fd5b5061037c6111f7565b6040516103899190611fcf565b60405180910390f35b34801561039e57600080fd5b506103a7611201565b005b3480156103b557600080fd5b506103be611213565b6040516103cb9190611efe565b60405180910390f35b3480156103e057600080fd5b506103e961123c565b6040516103f69190611efe565b60405180910390f35b34801561040b57600080fd5b50610414611262565b6040516104219190611fcf565b60405180910390f35b34801561043657600080fd5b50610451600480360381019061044c91906120ca565b611268565b005b34801561045f57600080fd5b5061047a600480360381019061047591906120ca565b611664565b604051610487919061213f565b60405180910390f35b610498611684565b005b3480156104a657600080fd5b506104af611722565b6040516104bc9190611fcf565b60405180910390f35b3480156104d157600080fd5b506104ec60048036038101906104e791906120ca565b611728565b6040516104f99190611fcf565b60405180910390f35b34801561050e57600080fd5b50610529600480360381019061052491906120ca565b611771565b005b34801561053757600080fd5b50610552600480360381019061054d9190611f80565b6117f7565b005b34801561056057600080fd5b50610569611901565b6040516105769190611fcf565b60405180910390f35b600560009054906101000a900473ffffffffffffffffffffffffffffffffffffffff1681565b6105ad611907565b600073ffffffffffffffffffffffffffffffffffffffff168273ffffffffffffffffffffffffffffffffffffffff160361061c576040517f08c379a0000000000000000000000000000000000000000000000000000000008152600401610613906121b7565b60405180910390fd5b80600c60003373ffffffffffffffffffffffffffffffffffffffff1673ffffffffffffffffffffffffffffffffffffffff16815260200190815260200160002054101561069e576040517f08c379a000000000000000000000000000000000000000000000000000000000815260040161069590612223565b60405180910390fd5b80600c60003373ffffffffffffffffffffffffffffffffffffffff1673ffffffffffffffffffffffffffffffffffffffff16815260200190815260200160002060008282546106ed9190612272565b9250508190555080600c60008473ffffffffffffffffffffffffffffffffffffffff1673ffffffffffffffffffffffffffffffffffffffff168152602001908152602001600020600082825461074391906122a6565b92505081905550600360008373ffffffffffffffffffffffffffffffffffffffff1673ffffffffffffffffffffffffffffffffffffffff16815260200190815260200160002060009054906101000a900460ff16610857576001600360008473ffffffffffffffffffffffffffffffffffffffff1673ffffffffffffffffffffffffffffffffffffffff16815260200190815260200160002060006101000a81548160ff021916908315150217905550600d829080600181540180825580915050600190039060005260206000200160009091909190916101000a81548173ffffffffffffffffffffffffffffffffffffffff021916908373ffffffffffffffffffffffffffffffffffffffff1602179055505b6000600c60003373ffffffffffffffffffffffffffffffffffffffff1673ffffffffffffffffffffffffffffffffffffffff168152602001908152602001600020541480156108ef5750600360003373ffffffffffffffffffffffffffffffffffffffff1673ffffffffffffffffffffffffffffffffffffffff16815260200190815260200160002060009054906101000a900460ff165b15610ad4576000600360003373ffffffffffffffffffffffffffffffffffffffff1673ffffffffffffffffffffffffffffffffffffffff16815260200190815260200160002060006101000a81548160ff02191690831515021790555060005b600d80549050811015610ad2573373ffffffffffffffffffffffffffffffffffffffff16600d8281548110610987576109866122da565b5b9060005260206000200160009054906101000a900473ffffffffffffffffffffffffffffffffffffffff1673ffffffffffffffffffffffffffffffffffffffff1603610ac557600d6001600d805490506109e19190612272565b815481106109f2576109f16122da565b5b9060005260206000200160009054906101000a900473ffffffffffffffffffffffffffffffffffffffff16600d8281548110610a3157610a306122da565b5b9060005260206000200160006101000a81548173ffffffffffffffffffffffffffffffffffffffff021916908373ffffffffffffffffffffffffffffffffffffffff160217905550600d805480610a8b57610a8a612309565b5b6001900381819060005260206000200160006101000a81549073ffffffffffffffffffffffffffffffffffffffff02191690559055610ad2565b808060010191505061094f565b505b8173ffffffffffffffffffffffffffffffffffffffff163373ffffffffffffffffffffffffffffffffffffffff167f42a6cd1e9e876206646a9eacb9cf776e74ee2e827040df117f589968704cc7ed83604051610b319190611fcf565b60405180910390a35050565b60095481565b610b4b611948565b610b536119cf565b565b6060600d805480602002602001604051908101604052809291908181526020018280548015610bd957602002820191906000526020600020905b8160009054906101000a900473ffffffffffffffffffffffffffffffffffffffff1673ffffffffffffffffffffffffffffffffffffffff1681526020019060010190808311610b8f575b5050505050905090565b600c6020528060005260406000206000915090505481565b600d8181548110610c0b57600080fd5b906000526020600020016000915054906101000a900473ffffffffffffffffffffffffffffffffffffffff1681565b6000600260009054906101000a900460ff16905090565b600b60009054906101000a900460ff1681565b610c6c611a32565b80600460009054906101000a900473ffffffffffffffffffffffffffffffffffffffff1673ffffffffffffffffffffffffffffffffffffffff168173ffffffffffffffffffffffffffffffffffffffff161480610d165750600560009054906101000a900473ffffffffffffffffffffffffffffffffffffffff1673ffffffffffffffffffffffffffffffffffffffff168173ffffffffffffffffffffffffffffffffffffffff16145b610d55576040517f08c379a0000000000000000000000000000000000000000000000000000000008152600401610d4c90612384565b60405180910390fd5b610d5d611907565b6000600a5403610d98577fdbe55a939fbac3346557c522ce846e527e6b295240e4814821285eca797053fe60405160405180910390a16111d1565b60008273ffffffffffffffffffffffffffffffffffffffff1663dd62ed3e33306040518363ffffffff1660e01b8152600401610dd59291906123a4565b602060405180830381865afa158015610df2573d6000803e3d6000fd5b505050506040513d601f19601f82011682018060405250810190610e1691906123e2565b905060008111610e5b576040517f08c379a0000000000000000000000000000000000000000000000000000000008152600401610e529061245b565b60405180910390fd5b60008373ffffffffffffffffffffffffffffffffffffffff166370a08231336040518263ffffffff1660e01b8152600401610e969190611efe565b602060405180830381865afa158015610eb3573d6000803e3d6000fd5b505050506040513d601f19601f82011682018060405250810190610ed791906123e2565b905081811015610f1c576040517f08c379a0000000000000000000000000000000000000000000000000000000008152600401610f13906124c7565b60405180910390fd5b6000600b60009054906101000a900460ff16610f3a57600654610f3e565b6007545b90506000816305f5e10085610f5391906124e7565b610f5d9190612558565b90508060096000828254610f7191906122a6565b92505081905550600b60009054906101000a900460ff1615610fe15760085460095410610fe0576000600b60006101000a81548160ff0219169083151502179055507f1eb1561f8507eb9bc6988331f66f369e75710f2b4b678ad5b4a52454b6636f5f60405160405180910390a15b5b6000600c60003373ffffffffffffffffffffffffffffffffffffffff1673ffffffffffffffffffffffffffffffffffffffff168152602001908152602001600020540361108c57600d339080600181540180825580915050600190039060005260206000200160009091909190916101000a81548173ffffffffffffffffffffffffffffffffffffffff021916908373ffffffffffffffffffffffffffffffffffffffff1602179055505b80600c60003373ffffffffffffffffffffffffffffffffffffffff1673ffffffffffffffffffffffffffffffffffffffff16815260200190815260200160002060008282546110db91906122a6565b9250508190555080600a60008282546110f49190612272565b925050819055508573ffffffffffffffffffffffffffffffffffffffff166323b872dd3330876040518463ffffffff1660e01b815260040161113893929190612589565b6020604051808303816000875af1158015611157573d6000803e3d6000fd5b505050506040513d601f19601f8201168201806040525081019061117b91906125ec565b503373ffffffffffffffffffffffffffffffffffffffff167f7494e309a68e673da9e1de3ae72425566aad3afb6b7ea7d70a590042a3a3864982866040516111c4929190612619565b60405180910390a2505050505b506111da611a78565b50565b6111e5611948565b6111ef6000611a81565b565b60085481565b6000600a54905090565b611209611948565b611211611b45565b565b60008060009054906101000a900473ffffffffffffffffffffffffffffffffffffffff16905090565b600460009054906101000a900473ffffffffffffffffffffffffffffffffffffffff1681565b600a5481565b611270611948565b611278611907565b6000600c60008373ffffffffffffffffffffffffffffffffffffffff1673ffffffffffffffffffffffffffffffffffffffff16815260200190815260200160002054116112fa576040517f08c379a00000000000000000000000000000000000000000000000000000000081526004016112f19061268e565b60405180910390fd5b6000600c60008373ffffffffffffffffffffffffffffffffffffffff1673ffffffffffffffffffffffffffffffffffffffff1681526020019081526020016000205490506000600c60008473ffffffffffffffffffffffffffffffffffffffff1673ffffffffffffffffffffffffffffffffffffffff1681526020019081526020016000208190555080600c6000611390611213565b73ffffffffffffffffffffffffffffffffffffffff1673ffffffffffffffffffffffffffffffffffffffff16815260200190815260200160002060008282546113d991906122a6565b92505081905550600360008373ffffffffffffffffffffffffffffffffffffffff1673ffffffffffffffffffffffffffffffffffffffff16815260200190815260200160002060009054906101000a900460ff1615611612576000600360008473ffffffffffffffffffffffffffffffffffffffff1673ffffffffffffffffffffffffffffffffffffffff16815260200190815260200160002060006101000a81548160ff02191690831515021790555060005b600d80549050811015611610578273ffffffffffffffffffffffffffffffffffffffff16600d82815481106114c5576114c46122da565b5b9060005260206000200160009054906101000a900473ffffffffffffffffffffffffffffffffffffffff1673ffffffffffffffffffffffffffffffffffffffff160361160357600d6001600d8054905061151f9190612272565b815481106115305761152f6122da565b5b9060005260206000200160009054906101000a900473ffffffffffffffffffffffffffffffffffffffff16600d828154811061156f5761156e6122da565b5b9060005260206000200160006101000a81548173ffffffffffffffffffffffffffffffffffffffff021916908373ffffffffffffffffffffffffffffffffffffffff160217905550600d8054806115c9576115c8612309565b5b6001900381819060005260206000200160006101000a81549073ffffffffffffffffffffffffffffffffffffffff02191690559055611610565b808060010191505061148d565b505b8173ffffffffffffffffffffffffffffffffffffffff167f7a330b35ffbc6fd8b0da421b39aa8f09c3344f166a1e5198235c449984ad2ee1826040516116589190611fcf565b60405180910390a25050565b60036020528060005260406000206000915054906101000a900460ff1681565b61168c611213565b73ffffffffffffffffffffffffffffffffffffffff166108fc349081150290604051600060405180830381858888f193505050501580156116d1573d6000803e3d6000fd5b503373ffffffffffffffffffffffffffffffffffffffff167f0553260a2e46b0577270d8992db02d30856ca880144c72d6e9503760946aef13346040516117189190611fcf565b60405180910390a2565b60065481565b6000600c60008373ffffffffffffffffffffffffffffffffffffffff1673ffffffffffffffffffffffffffffffffffffffff168152602001908152602001600020549050919050565b611779611948565b600073ffffffffffffffffffffffffffffffffffffffff168173ffffffffffffffffffffffffffffffffffffffff16036117eb5760006040517f1e4fbdf70000000000000000000000000000000000000000000000000000000081526004016117e29190611efe565b60405180910390fd5b6117f481611a81565b50565b6117ff611948565b611807611a32565b808273ffffffffffffffffffffffffffffffffffffffff166370a08231306040518263ffffffff1660e01b81526004016118419190611efe565b602060405180830381865afa15801561185e573d6000803e3d6000fd5b505050506040513d601f19601f8201168201806040525081019061188291906123e2565b10156118c3576040517f08c379a00000000000000000000000000000000000000000000000000000000081526004016118ba906126fa565b60405180910390fd5b6118f56118ce611213565b828473ffffffffffffffffffffffffffffffffffffffff16611ba89092919063ffffffff16565b6118fd611a78565b5050565b60075481565b61190f610c3a565b15611946576040517fd93c066500000000000000000000000000000000000000000000000000000000815260040160405180910390fd5b565b611950611c27565b73ffffffffffffffffffffffffffffffffffffffff1661196e611213565b73ffffffffffffffffffffffffffffffffffffffff16146119cd57611991611c27565b6040517f118cdaa70000000000000000000000000000000000000000000000000000000081526004016119c49190611efe565b60405180910390fd5b565b6119d7611c2f565b6000600260006101000a81548160ff0219169083151502179055507f5db9ee0a495bf2e6ff9c91a7834c1ba4fdd244a5e8aa4e537bd38aeae4b073aa611a1b611c27565b604051611a289190611efe565b60405180910390a1565b600260015403611a6e576040517f3ee5aeb500000000000000000000000000000000000000000000000000000000815260040160405180910390fd5b6002600181905550565b60018081905550565b60008060009054906101000a900473ffffffffffffffffffffffffffffffffffffffff169050816000806101000a81548173ffffffffffffffffffffffffffffffffffffffff021916908373ffffffffffffffffffffffffffffffffffffffff1602179055508173ffffffffffffffffffffffffffffffffffffffff168173ffffffffffffffffffffffffffffffffffffffff167f8be0079c531659141344cd1fd0a4f28419497f9722a3daafe3b4186f6b6457e060405160405180910390a35050565b611b4d611907565b6001600260006101000a81548160ff0219169083151502179055507f62e78cea01bee320cd4e420270b5ea74000d11b0c9f74754ebdbfc544b05a258611b91611c27565b604051611b9e9190611efe565b60405180910390a1565b611c22838473ffffffffffffffffffffffffffffffffffffffff1663a9059cbb8585604051602401611bdb92919061271a565b604051602081830303815290604052915060e01b6020820180517bffffffffffffffffffffffffffffffffffffffffffffffffffffffff8381831617835250505050611c6f565b505050565b600033905090565b611c37610c3a565b611c6d576040517f8dfc202b00000000000000000000000000000000000000000000000000000000815260040160405180910390fd5b565b6000611c9a828473ffffffffffffffffffffffffffffffffffffffff16611d0690919063ffffffff16565b90506000815114158015611cbf575080806020019051810190611cbd91906125ec565b155b15611d0157826040517f5274afe7000000000000000000000000000000000000000000000000000000008152600401611cf89190611efe565b60405180910390fd5b505050565b6060611d1483836000611d1c565b905092915050565b606081471015611d6357306040517fcd786059000000000000000000000000000000000000000000000000000000008152600401611d5a9190611efe565b60405180910390fd5b6000808573ffffffffffffffffffffffffffffffffffffffff168486604051611d8c91906127b4565b60006040518083038185875af1925050503d8060008114611dc9576040519150601f19603f3d011682016040523d82523d6000602084013e611dce565b606091505b5091509150611dde868383611de9565b925050509392505050565b606082611dfe57611df982611e78565b611e70565b60008251148015611e26575060008473ffffffffffffffffffffffffffffffffffffffff163b145b15611e6857836040517f9996b315000000000000000000000000000000000000000000000000000000008152600401611e5f9190611efe565b60405180910390fd5b819050611e71565b5b9392505050565b600081511115611e8b5780518082602001fd5b6040517f1425ea4200000000000000000000000000000000000000000000000000000000815260040160405180910390fd5b600073ffffffffffffffffffffffffffffffffffffffff82169050919050565b6000611ee882611ebd565b9050919050565b611ef881611edd565b82525050565b6000602082019050611f136000830184611eef565b92915050565b600080fd5b611f2781611edd565b8114611f3257600080fd5b50565b600081359050611f4481611f1e565b92915050565b6000819050919050565b611f5d81611f4a565b8114611f6857600080fd5b50565b600081359050611f7a81611f54565b92915050565b60008060408385031215611f9757611f96611f19565b5b6000611fa585828601611f35565b9250506020611fb685828601611f6b565b9150509250929050565b611fc981611f4a565b82525050565b6000602082019050611fe46000830184611fc0565b92915050565b600081519050919050565b600082825260208201905092915050565b6000819050602082019050919050565b61201f81611edd565b82525050565b60006120318383612016565b60208301905092915050565b6000602082019050919050565b600061205582611fea565b61205f8185611ff5565b935061206a83612006565b8060005b8381101561209b5781516120828882612025565b975061208d8361203d565b92505060018101905061206e565b5085935050505092915050565b600060208201905081810360008301526120c2818461204a565b905092915050565b6000602082840312156120e0576120df611f19565b5b60006120ee84828501611f35565b91505092915050565b60006020828403121561210d5761210c611f19565b5b600061211b84828501611f6b565b91505092915050565b60008115159050919050565b61213981612124565b82525050565b60006020820190506121546000830184612130565b92915050565b600082825260208201905092915050565b7f43616e6e6f74207472616e7366657220746f207a65726f206164647265737300600082015250565b60006121a1601f8361215a565b91506121ac8261216b565b602082019050919050565b600060208201905081810360008301526121d081612194565b9050919050565b7f496e73756666696369656e742073686172657300000000000000000000000000600082015250565b600061220d60138361215a565b9150612218826121d7565b602082019050919050565b6000602082019050818103600083015261223c81612200565b9050919050565b7f4e487b7100000000000000000000000000000000000000000000000000000000600052601160045260246000fd5b600061227d82611f4a565b915061228883611f4a565b92508282039050818111156122a05761229f612243565b5b92915050565b60006122b182611f4a565b91506122bc83611f4a565b92508282019050808211156122d4576122d3612243565b5b92915050565b7f4e487b7100000000000000000000000000000000000000000000000000000000600052603260045260246000fd5b7f4e487b7100000000000000000000000000000000000000000000000000000000600052603160045260246000fd5b7f496e76616c696420746f6b656e20616464726573730000000000000000000000600082015250565b600061236e60158361215a565b915061237982612338565b602082019050919050565b6000602082019050818103600083015261239d81612361565b9050919050565b60006040820190506123b96000830185611eef565b6123c66020830184611eef565b9392505050565b6000815190506123dc81611f54565b92915050565b6000602082840312156123f8576123f7611f19565b5b6000612406848285016123cd565b91505092915050565b7f416d6f756e74206d7573742062652067726561746572207468616e207a65726f600082015250565b600061244560208361215a565b91506124508261240f565b602082019050919050565b6000602082019050818103600083015261247481612438565b9050919050565b7f496e73756666696369656e7420746f6b656e2062616c616e6365000000000000600082015250565b60006124b1601a8361215a565b91506124bc8261247b565b602082019050919050565b600060208201905081810360008301526124e0816124a4565b9050919050565b60006124f282611f4a565b91506124fd83611f4a565b925082820261250b81611f4a565b9150828204841483151761252257612521612243565b5b5092915050565b7f4e487b7100000000000000000000000000000000000000000000000000000000600052601260045260246000fd5b600061256382611f4a565b915061256e83611f4a565b92508261257e5761257d612529565b5b828204905092915050565b600060608201905061259e6000830186611eef565b6125ab6020830185611eef565b6125b86040830184611fc0565b949350505050565b6125c981612124565b81146125d457600080fd5b50565b6000815190506125e6816125c0565b92915050565b60006020828403121561260257612601611f19565b5b6000612610848285016125d7565b91505092915050565b600060408201905061262e6000830185611fc0565b61263b6020830184611fc0565b9392505050565b7f4e6f2073686172657320746f207365697a650000000000000000000000000000600082015250565b600061267860128361215a565b915061268382612642565b602082019050919050565b600060208201905081810360008301526126a78161266b565b9050919050565b7f496e73756666696369656e742062616c616e6365000000000000000000000000600082015250565b60006126e460148361215a565b91506126ef826126ae565b602082019050919050565b60006020820190508181036000830152612713816126d7565b9050919050565b600060408201905061272f6000830185611eef565b61273c6020830184611fc0565b9392505050565b600081519050919050565b600081905092915050565b60005b8381101561277757808201518184015260208101905061275c565b60008484015250505050565b600061278e82612743565b612798818561274e565b93506127a8818560208601612759565b80840191505092915050565b60006127c08284612783565b91508190509291505056fea2646970667358221220dca7e60038ead77b432f1f8b8cf1a4f0c1a068c3c261c9f10403bae4c1da48dd64736f6c63430008180033",
  "linkReferences": {},
  "deployedLinkReferences": {}
}