{
  "_format": "hh-sol-artifact-1",
  "contractName": "BigIncGenesis",
  "sourceName": "contracts/BigIncGenesis.sol",
  "abi": [
    {
      "inputs": [
        {
          "internalType": "address",
          "name": "_usdtAddress",
          "type": "address"
        },
        {
          "internalType": "address",
          "name": "_usdcAddress",
          "type": "address"
        }
      ],
      "stateMutability": "nonpayable",
      "type": "constructor"
    },
    {
      "anonymous": false,
      "inputs": [
        {
          "indexed": true,
          "internalType": "address",
          "name": "donor",
          "type": "address"
        },
        {
          "indexed": false,
          "internalType": "uint256",
          "name": "amount",
          "type": "uint256"
        }
      ],
      "name": "Donate",
      "type": "event"
    },
    {
      "anonymous": false,
      "inputs": [],
      "name": "PresaleEnded",
      "type": "event"
    },
    {
      "anonymous": false,
      "inputs": [
        {
          "indexed": true,
          "internalType": "address",
          "name": "buyer",
          "type": "address"
        },
        {
          "indexed": false,
          "internalType": "uint256",
          "name": "sharesBought",
          "type": "uint256"
        },
        {
          "indexed": false,
          "internalType": "uint256",
          "name": "amount",
          "type": "uint256"
        }
      ],
      "name": "ShareMinted",
      "type": "event"
    },
    {
      "anonymous": false,
      "inputs": [],
      "name": "SharesPriceAdjusted",
      "type": "event"
    },
    {
      "anonymous": false,
      "inputs": [
        {
          "indexed": true,
          "internalType": "address",
          "name": "shareholder",
          "type": "address"
        },
        {
          "indexed": false,
          "internalType": "uint256",
          "name": "shareAmount",
          "type": "uint256"
        }
      ],
      "name": "SharesSeized",
      "type": "event"
    },
    {
      "anonymous": false,
      "inputs": [
        {
          "indexed": true,
          "internalType": "address",
          "name": "from",
          "type": "address"
        },
        {
          "indexed": true,
          "internalType": "address",
          "name": "to",
          "type": "address"
        },
        {
          "indexed": false,
          "internalType": "uint256",
          "name": "shareAmount",
          "type": "uint256"
        }
      ],
      "name": "TransferShare",
      "type": "event"
    },
    {
      "inputs": [],
      "name": "adjustPriceAfterPresale",
      "outputs": [],
      "stateMutability": "nonpayable",
      "type": "function"
    },
    {
      "inputs": [],
      "name": "availableShares",
      "outputs": [
        {
          "internalType": "uint256",
          "name": "",
          "type": "uint256"
        }
      ],
      "stateMutability": "view",
      "type": "function"
    },
    {
      "inputs": [],
      "name": "donate",
      "outputs": [],
      "stateMutability": "payable",
      "type": "function"
    },
    {
      "inputs": [],
      "name": "getAvailableShares",
      "outputs": [
        {
          "internalType": "uint256",
          "name": "",
          "type": "uint256"
        }
      ],
      "stateMutability": "view",
      "type": "function"
    },
    {
      "inputs": [
        {
          "internalType": "address",
          "name": "addr",
          "type": "address"
        }
      ],
      "name": "getMyShareValue",
      "outputs": [
        {
          "internalType": "uint256",
          "name": "",
          "type": "uint256"
        }
      ],
      "stateMutability": "view",
      "type": "function"
    },
    {
      "inputs": [],
      "name": "getShareholders",
      "outputs": [
        {
          "internalType": "address[]",
          "name": "",
          "type": "address[]"
        }
      ],
      "stateMutability": "view",
      "type": "function"
    },
    {
      "inputs": [],
      "name": "isPresaleActive",
      "outputs": [
        {
          "internalType": "bool",
          "name": "",
          "type": "bool"
        }
      ],
      "stateMutability": "view",
      "type": "function"
    },
    {
      "inputs": [
        {
          "internalType": "uint256",
          "name": "amount",
          "type": "uint256"
        },
        {
          "internalType": "address",
          "name": "tokenAddress",
          "type": "address"
        }
      ],
      "name": "mintShare",
      "outputs": [],
      "stateMutability": "nonpayable",
      "type": "function"
    },
    {
      "inputs": [],
      "name": "owner",
      "outputs": [
        {
          "internalType": "address",
          "name": "",
          "type": "address"
        }
      ],
      "stateMutability": "view",
      "type": "function"
    },
    {
      "inputs": [],
      "name": "presaleShareValuation",
      "outputs": [
        {
          "internalType": "uint256",
          "name": "",
          "type": "uint256"
        }
      ],
      "stateMutability": "view",
      "type": "function"
    },
    {
      "inputs": [],
      "name": "presaleSharesAvailable",
      "outputs": [
        {
          "internalType": "uint256",
          "name": "",
          "type": "uint256"
        }
      ],
      "stateMutability": "view",
      "type": "function"
    },
    {
      "inputs": [
        {
          "internalType": "address",
          "name": "shareholder",
          "type": "address"
        }
      ],
      "name": "seizeShares",
      "outputs": [],
      "stateMutability": "nonpayable",
      "type": "function"
    },
    {
      "inputs": [
        {
          "internalType": "uint256",
          "name": "",
          "type": "uint256"
        }
      ],
      "name": "shareholderAddresses",
      "outputs": [
        {
          "internalType": "address",
          "name": "",
          "type": "address"
        }
      ],
      "stateMutability": "view",
      "type": "function"
    },
    {
      "inputs": [
        {
          "internalType": "address",
          "name": "",
          "type": "address"
        }
      ],
      "name": "shareholders",
      "outputs": [
        {
          "internalType": "uint256",
          "name": "",
          "type": "uint256"
        }
      ],
      "stateMutability": "view",
      "type": "function"
    },
    {
      "inputs": [],
      "name": "sharesSold",
      "outputs": [
        {
          "internalType": "uint256",
          "name": "",
          "type": "uint256"
        }
      ],
      "stateMutability": "view",
      "type": "function"
    },
    {
      "inputs": [],
      "name": "totalShareValuation",
      "outputs": [
        {
          "internalType": "uint256",
          "name": "",
          "type": "uint256"
        }
      ],
      "stateMutability": "view",
      "type": "function"
    },
    {
      "inputs": [
        {
          "internalType": "address",
          "name": "to",
          "type": "address"
        },
        {
          "internalType": "uint256",
          "name": "shareAmount",
          "type": "uint256"
        }
      ],
      "name": "transferShare",
      "outputs": [],
      "stateMutability": "nonpayable",
      "type": "function"
    },
    {
      "inputs": [],
      "name": "usdcAddress",
      "outputs": [
        {
          "internalType": "address",
          "name": "",
          "type": "address"
        }
      ],
      "stateMutability": "view",
      "type": "function"
    },
    {
      "inputs": [],
      "name": "usdtAddress",
      "outputs": [
        {
          "internalType": "address",
          "name": "",
          "type": "address"
        }
      ],
      "stateMutability": "view",
      "type": "function"
    },
    {
      "inputs": [
        {
          "internalType": "address",
          "name": "tokenAddress",
          "type": "address"
        },
        {
          "internalType": "uint256",
          "name": "amount",
          "type": "uint256"
        }
      ],
      "name": "withdraw",
      "outputs": [],
      "stateMutability": "nonpayable",
      "type": "function"
    }
  ],
  "bytecode": "0x6080604052649e53289000600355646a6fd89bc06004556015600555600060065560526007556001600860006101000a81548160ff0219169083151502179055503480156200004d57600080fd5b506040516200232238038062002322833981810160405281019062000073919062000296565b336000806101000a81548173ffffffffffffffffffffffffffffffffffffffff021916908373ffffffffffffffffffffffffffffffffffffffff16021790555081600160006101000a81548173ffffffffffffffffffffffffffffffffffffffff021916908373ffffffffffffffffffffffffffffffffffffffff16021790555080600260006101000a81548173ffffffffffffffffffffffffffffffffffffffff021916908373ffffffffffffffffffffffffffffffffffffffff16021790555060006012905080600960008060009054906101000a900473ffffffffffffffffffffffffffffffffffffffff1673ffffffffffffffffffffffffffffffffffffffff1673ffffffffffffffffffffffffffffffffffffffff16815260200190815260200160002081905550600a60008054906101000a900473ffffffffffffffffffffffffffffffffffffffff169080600181540180825580915050600190039060005260206000200160009091909190916101000a81548173ffffffffffffffffffffffffffffffffffffffff021916908373ffffffffffffffffffffffffffffffffffffffff160217905550505050620002dd565b600080fd5b600073ffffffffffffffffffffffffffffffffffffffff82169050919050565b60006200025e8262000231565b9050919050565b620002708162000251565b81146200027c57600080fd5b50565b600081519050620002908162000265565b92915050565b60008060408385031215620002b057620002af6200022c565b5b6000620002c0858286016200027f565b9250506020620002d3858286016200027f565b9150509250929050565b61203580620002ed6000396000f3fe60806040526004361061011f5760003560e01c80638da5cb5b116100a0578063daf92d1c11610064578063daf92d1c146103c5578063ed88c68e146103f0578063eea5a1b1146103fa578063f3fef3a314610425578063ffe517bc1461044e5761011f565b80638da5cb5b146103045780639ab4a4451461032f578063a173f79e1461035a578063ac55c83814610385578063b5786c9d146103ae5761011f565b806341ca641e116100e757806341ca641e146102095780635c2930ad146102345780635c3184dc1461027157806360d938dc146102ae578063817bc0cb146102d95761011f565b806302d454571461012457806312e868be1461014f578063192fc516146101785780631e2b9820146101a357806336342fb1146101cc575b600080fd5b34801561013057600080fd5b50610139610479565b6040516101469190611690565b60405180910390f35b34801561015b57600080fd5b5061017660048036038101906101719190611712565b61049f565b005b34801561018457600080fd5b5061018d6106e1565b60405161019a9190611761565b60405180910390f35b3480156101af57600080fd5b506101ca60048036038101906101c5919061177c565b6106e7565b005b3480156101d857600080fd5b506101f360048036038101906101ee91906117bc565b610c1d565b6040516102009190611761565b60405180910390f35b34801561021557600080fd5b5061021e610c66565b60405161022b91906118a7565b60405180910390f35b34801561024057600080fd5b5061025b600480360381019061025691906117bc565b610cf4565b6040516102689190611761565b60405180910390f35b34801561027d57600080fd5b50610298600480360381019061029391906118c9565b610d0c565b6040516102a59190611690565b60405180910390f35b3480156102ba57600080fd5b506102c3610d4b565b6040516102d09190611911565b60405180910390f35b3480156102e557600080fd5b506102ee610d5e565b6040516102fb9190611761565b60405180910390f35b34801561031057600080fd5b50610319610d68565b6040516103269190611690565b60405180910390f35b34801561033b57600080fd5b50610344610d8c565b6040516103519190611690565b60405180910390f35b34801561036657600080fd5b5061036f610db2565b60405161037c9190611761565b60405180910390f35b34801561039157600080fd5b506103ac60048036038101906103a791906117bc565b610db8565b005b3480156103ba57600080fd5b506103c36111a1565b005b3480156103d157600080fd5b506103da6112ad565b6040516103e79190611761565b60405180910390f35b6103f86112b3565b005b34801561040657600080fd5b5061040f61136a565b60405161041c9190611761565b60405180910390f35b34801561043157600080fd5b5061044c60048036038101906104479190611712565b611370565b005b34801561045a57600080fd5b5061046361155d565b6040516104709190611761565b60405180910390f35b600260009054906101000a900473ffffffffffffffffffffffffffffffffffffffff1681565b80600960003373ffffffffffffffffffffffffffffffffffffffff1673ffffffffffffffffffffffffffffffffffffffff168152602001908152602001600020541015610521576040517f08c379a000000000000000000000000000000000000000000000000000000000815260040161051890611989565b60405180910390fd5b80600960003373ffffffffffffffffffffffffffffffffffffffff1673ffffffffffffffffffffffffffffffffffffffff168152602001908152602001600020600082825461057091906119d8565b9250508190555080600960008473ffffffffffffffffffffffffffffffffffffffff1673ffffffffffffffffffffffffffffffffffffffff16815260200190815260200160002060008282546105c69190611a0c565b925050819055506000600960008473ffffffffffffffffffffffffffffffffffffffff1673ffffffffffffffffffffffffffffffffffffffff168152602001908152602001600020540361067857600a829080600181540180825580915050600190039060005260206000200160009091909190916101000a81548173ffffffffffffffffffffffffffffffffffffffff021916908373ffffffffffffffffffffffffffffffffffffffff1602179055505b8173ffffffffffffffffffffffffffffffffffffffff163373ffffffffffffffffffffffffffffffffffffffff167f42a6cd1e9e876206646a9eacb9cf776e74ee2e827040df117f589968704cc7ed836040516106d59190611761565b60405180910390a35050565b60065481565b80600160009054906101000a900473ffffffffffffffffffffffffffffffffffffffff1673ffffffffffffffffffffffffffffffffffffffff168173ffffffffffffffffffffffffffffffffffffffff1614806107915750600260009054906101000a900473ffffffffffffffffffffffffffffffffffffffff1673ffffffffffffffffffffffffffffffffffffffff168173ffffffffffffffffffffffffffffffffffffffff16145b6107d0576040517f08c379a00000000000000000000000000000000000000000000000000000000081526004016107c790611a8c565b60405180910390fd5b60008311610813576040517f08c379a000000000000000000000000000000000000000000000000000000000815260040161080a90611af8565b60405180910390fd5b60008273ffffffffffffffffffffffffffffffffffffffff166370a08231336040518263ffffffff1660e01b815260040161084e9190611690565b602060405180830381865afa15801561086b573d6000803e3d6000fd5b505050506040513d601f19601f8201168201806040525081019061088f9190611b2d565b90506108d0816040518060400160405280600d81526020017f466b696e672042616c616e636500000000000000000000000000000000000000815250611563565b83811015610913576040517f08c379a000000000000000000000000000000000000000000000000000000000815260040161090a90611ba6565b60405180910390fd5b6000600860009054906101000a900460ff1661093157600354610935565b6004545b90506000816064876109479190611bc6565b6109519190611c37565b9050610992816040518060400160405280600281526020017f4d66000000000000000000000000000000000000000000000000000000000000815250611563565b600860009054906101000a900460ff1615610a135780600560008282546109b991906119d8565b92505081905550600060055411610a12576000600860006101000a81548160ff0219169083151502179055507f1eb1561f8507eb9bc6988331f66f369e75710f2b4b678ad5b4a52454b6636f5f60405160405180910390a15b5b6000600960003373ffffffffffffffffffffffffffffffffffffffff1673ffffffffffffffffffffffffffffffffffffffff1681526020019081526020016000205403610abe57600a339080600181540180825580915050600190039060005260206000200160009091909190916101000a81548173ffffffffffffffffffffffffffffffffffffffff021916908373ffffffffffffffffffffffffffffffffffffffff1602179055505b8060066000828254610ad09190611a0c565b9250508190555080600960003373ffffffffffffffffffffffffffffffffffffffff1673ffffffffffffffffffffffffffffffffffffffff1681526020019081526020016000206000828254610b269190611a0c565b925050819055508060076000828254610b3f91906119d8565b925050819055508473ffffffffffffffffffffffffffffffffffffffff1663a9059cbb30886040518363ffffffff1660e01b8152600401610b81929190611c68565b6020604051808303816000875af1158015610ba0573d6000803e3d6000fd5b505050506040513d601f19601f82011682018060405250810190610bc49190611cbd565b503373ffffffffffffffffffffffffffffffffffffffff167f7494e309a68e673da9e1de3ae72425566aad3afb6b7ea7d70a590042a3a386498288604051610c0d929190611cea565b60405180910390a2505050505050565b6000600960008373ffffffffffffffffffffffffffffffffffffffff1673ffffffffffffffffffffffffffffffffffffffff168152602001908152602001600020549050919050565b6060600a805480602002602001604051908101604052809291908181526020018280548015610cea57602002820191906000526020600020905b8160009054906101000a900473ffffffffffffffffffffffffffffffffffffffff1673ffffffffffffffffffffffffffffffffffffffff1681526020019060010190808311610ca0575b5050505050905090565b60096020528060005260406000206000915090505481565b600a8181548110610d1c57600080fd5b906000526020600020016000915054906101000a900473ffffffffffffffffffffffffffffffffffffffff1681565b600860009054906101000a900460ff1681565b6000600754905090565b60008054906101000a900473ffffffffffffffffffffffffffffffffffffffff1681565b600160009054906101000a900473ffffffffffffffffffffffffffffffffffffffff1681565b60075481565b60008054906101000a900473ffffffffffffffffffffffffffffffffffffffff1673ffffffffffffffffffffffffffffffffffffffff163373ffffffffffffffffffffffffffffffffffffffff1614610e46576040517f08c379a0000000000000000000000000000000000000000000000000000000008152600401610e3d90611d5f565b60405180910390fd5b6000600960008373ffffffffffffffffffffffffffffffffffffffff1673ffffffffffffffffffffffffffffffffffffffff1681526020019081526020016000205411610ec8576040517f08c379a0000000000000000000000000000000000000000000000000000000008152600401610ebf90611dcb565b60405180910390fd5b6000600960008373ffffffffffffffffffffffffffffffffffffffff1673ffffffffffffffffffffffffffffffffffffffff16815260200190815260200160002054905080600960008060009054906101000a900473ffffffffffffffffffffffffffffffffffffffff1673ffffffffffffffffffffffffffffffffffffffff1673ffffffffffffffffffffffffffffffffffffffff1681526020019081526020016000206000828254610f7c9190611a0c565b925050819055506000600960008473ffffffffffffffffffffffffffffffffffffffff1673ffffffffffffffffffffffffffffffffffffffff1681526020019081526020016000208190555060005b600a8054905081101561114e578273ffffffffffffffffffffffffffffffffffffffff16600a828154811061100357611002611deb565b5b9060005260206000200160009054906101000a900473ffffffffffffffffffffffffffffffffffffffff1673ffffffffffffffffffffffffffffffffffffffff160361114157600a6001600a8054905061105d91906119d8565b8154811061106e5761106d611deb565b5b9060005260206000200160009054906101000a900473ffffffffffffffffffffffffffffffffffffffff16600a82815481106110ad576110ac611deb565b5b9060005260206000200160006101000a81548173ffffffffffffffffffffffffffffffffffffffff021916908373ffffffffffffffffffffffffffffffffffffffff160217905550600a80548061110757611106611e1a565b5b6001900381819060005260206000200160006101000a81549073ffffffffffffffffffffffffffffffffffffffff0219169055905561114e565b8080600101915050610fcb565b508173ffffffffffffffffffffffffffffffffffffffff167f7a330b35ffbc6fd8b0da421b39aa8f09c3344f166a1e5198235c449984ad2ee1826040516111959190611761565b60405180910390a25050565b60008054906101000a900473ffffffffffffffffffffffffffffffffffffffff1673ffffffffffffffffffffffffffffffffffffffff163373ffffffffffffffffffffffffffffffffffffffff161461122f576040517f08c379a000000000000000000000000000000000000000000000000000000000815260040161122690611d5f565b60405180910390fd5b600860009054906101000a900460ff161561127f576040517f08c379a000000000000000000000000000000000000000000000000000000000815260040161127690611e95565b60405180910390fd5b7fa8dbd4ab7579dbf87851f57f9cb7c8f99cd40bd3edf853f6d925d186dd19865b60405160405180910390a1565b60055481565b60008054906101000a900473ffffffffffffffffffffffffffffffffffffffff1673ffffffffffffffffffffffffffffffffffffffff166108fc349081150290604051600060405180830381858888f19350505050158015611319573d6000803e3d6000fd5b503373ffffffffffffffffffffffffffffffffffffffff167f0553260a2e46b0577270d8992db02d30856ca880144c72d6e9503760946aef13346040516113609190611761565b60405180910390a2565b60035481565b60008054906101000a900473ffffffffffffffffffffffffffffffffffffffff1673ffffffffffffffffffffffffffffffffffffffff163373ffffffffffffffffffffffffffffffffffffffff16146113fe576040517f08c379a00000000000000000000000000000000000000000000000000000000081526004016113f590611d5f565b60405180910390fd5b808273ffffffffffffffffffffffffffffffffffffffff166370a08231306040518263ffffffff1660e01b81526004016114389190611690565b602060405180830381865afa158015611455573d6000803e3d6000fd5b505050506040513d601f19601f820116820180604052508101906114799190611b2d565b10156114ba576040517f08c379a00000000000000000000000000000000000000000000000000000000081526004016114b190611f01565b60405180910390fd5b8173ffffffffffffffffffffffffffffffffffffffff1663a9059cbb60008054906101000a900473ffffffffffffffffffffffffffffffffffffffff16836040518363ffffffff1660e01b8152600401611515929190611c68565b6020604051808303816000875af1158015611534573d6000803e3d6000fd5b505050506040513d601f19601f820116820180604052508101906115589190611cbd565b505050565b60045481565b6115fb8282604051602401611579929190611fa0565b6040516020818303038152906040527f643fd0df000000000000000000000000000000000000000000000000000000007bffffffffffffffffffffffffffffffffffffffffffffffffffffffff19166020820180517bffffffffffffffffffffffffffffffffffffffffffffffffffffffff83818316178352505050506115ff565b5050565b6116168161160e61161961163a565b63ffffffff16565b50565b60006a636f6e736f6c652e6c6f679050600080835160208501845afa505050565b611645819050919050565b61164d611fd0565b565b600073ffffffffffffffffffffffffffffffffffffffff82169050919050565b600061167a8261164f565b9050919050565b61168a8161166f565b82525050565b60006020820190506116a56000830184611681565b92915050565b600080fd5b6116b98161166f565b81146116c457600080fd5b50565b6000813590506116d6816116b0565b92915050565b6000819050919050565b6116ef816116dc565b81146116fa57600080fd5b50565b60008135905061170c816116e6565b92915050565b60008060408385031215611729576117286116ab565b5b6000611737858286016116c7565b9250506020611748858286016116fd565b9150509250929050565b61175b816116dc565b82525050565b60006020820190506117766000830184611752565b92915050565b60008060408385031215611793576117926116ab565b5b60006117a1858286016116fd565b92505060206117b2858286016116c7565b9150509250929050565b6000602082840312156117d2576117d16116ab565b5b60006117e0848285016116c7565b91505092915050565b600081519050919050565b600082825260208201905092915050565b6000819050602082019050919050565b61181e8161166f565b82525050565b60006118308383611815565b60208301905092915050565b6000602082019050919050565b6000611854826117e9565b61185e81856117f4565b935061186983611805565b8060005b8381101561189a5781516118818882611824565b975061188c8361183c565b92505060018101905061186d565b5085935050505092915050565b600060208201905081810360008301526118c18184611849565b905092915050565b6000602082840312156118df576118de6116ab565b5b60006118ed848285016116fd565b91505092915050565b60008115159050919050565b61190b816118f6565b82525050565b60006020820190506119266000830184611902565b92915050565b600082825260208201905092915050565b7f496e73756666696369656e742073686172657300000000000000000000000000600082015250565b600061197360138361192c565b915061197e8261193d565b602082019050919050565b600060208201905081810360008301526119a281611966565b9050919050565b7f4e487b7100000000000000000000000000000000000000000000000000000000600052601160045260246000fd5b60006119e3826116dc565b91506119ee836116dc565b9250828203905081811115611a0657611a056119a9565b5b92915050565b6000611a17826116dc565b9150611a22836116dc565b9250828201905080821115611a3a57611a396119a9565b5b92915050565b7f496e76616c696420746f6b656e20616464726573730000000000000000000000600082015250565b6000611a7660158361192c565b9150611a8182611a40565b602082019050919050565b60006020820190508181036000830152611aa581611a69565b9050919050565b7f416d6f756e74206d7573742062652067726561746572207468616e207a65726f600082015250565b6000611ae260208361192c565b9150611aed82611aac565b602082019050919050565b60006020820190508181036000830152611b1181611ad5565b9050919050565b600081519050611b27816116e6565b92915050565b600060208284031215611b4357611b426116ab565b5b6000611b5184828501611b18565b91505092915050565b7f496e73756666696369656e7420746f6b656e2062616c616e6365000000000000600082015250565b6000611b90601a8361192c565b9150611b9b82611b5a565b602082019050919050565b60006020820190508181036000830152611bbf81611b83565b9050919050565b6000611bd1826116dc565b9150611bdc836116dc565b9250828202611bea816116dc565b91508282048414831517611c0157611c006119a9565b5b5092915050565b7f4e487b7100000000000000000000000000000000000000000000000000000000600052601260045260246000fd5b6000611c42826116dc565b9150611c4d836116dc565b925082611c5d57611c5c611c08565b5b828204905092915050565b6000604082019050611c7d6000830185611681565b611c8a6020830184611752565b9392505050565b611c9a816118f6565b8114611ca557600080fd5b50565b600081519050611cb781611c91565b92915050565b600060208284031215611cd357611cd26116ab565b5b6000611ce184828501611ca8565b91505092915050565b6000604082019050611cff6000830185611752565b611d0c6020830184611752565b9392505050565b7f4e6f7420636f6e7472616374206f776e65720000000000000000000000000000600082015250565b6000611d4960128361192c565b9150611d5482611d13565b602082019050919050565b60006020820190508181036000830152611d7881611d3c565b9050919050565b7f4e6f2073686172657320746f207365697a650000000000000000000000000000600082015250565b6000611db560128361192c565b9150611dc082611d7f565b602082019050919050565b60006020820190508181036000830152611de481611da8565b9050919050565b7f4e487b7100000000000000000000000000000000000000000000000000000000600052603260045260246000fd5b7f4e487b7100000000000000000000000000000000000000000000000000000000600052603160045260246000fd5b7f50726573616c65206973207374696c6c20616374697665000000000000000000600082015250565b6000611e7f60178361192c565b9150611e8a82611e49565b602082019050919050565b60006020820190508181036000830152611eae81611e72565b9050919050565b7f496e73756666696369656e742062616c616e6365000000000000000000000000600082015250565b6000611eeb60148361192c565b9150611ef682611eb5565b602082019050919050565b60006020820190508181036000830152611f1a81611ede565b9050919050565b600081519050919050565b60005b83811015611f4a578082015181840152602081019050611f2f565b60008484015250505050565b6000601f19601f8301169050919050565b6000611f7282611f21565b611f7c818561192c565b9350611f8c818560208601611f2c565b611f9581611f56565b840191505092915050565b6000604082019050611fb56000830185611752565b8181036020830152611fc78184611f67565b90509392505050565b7f4e487b7100000000000000000000000000000000000000000000000000000000600052605160045260246000fdfea26469706673582212208ddd0ea6c8f7dd73a205fec096fd4b2ba78cb6463614266c2f526c33d3474cce64736f6c63430008180033",
  "linkReferences": {},
  "deployedLinkReferences": {}
}